:1000000010C02AC029C028C027C026C025C024C0CF
:1000100023C022C021C020C01FC01EC01DC01CC0E4
:100020001BC011241FBECFE5D2E0DEBFCDBF10E064
:10003000A0E6B0E0E6EDF4E002C005900D92AA362D
:10004000B107D9F710E0AAE6B0E001C01D92AB36C7
:10005000B107E1F70DD23DC2D3CF80916A0088BBD2
:100060000895809590916A00892380936A0088BBE7
:10007000089590916A00982B90936A0098BB089518
:1000800010926A0018BA08958FEF80936A0088BBB7
:1000900008958FEF87BB11BA80936A0088BB0895DB
:1000A00080916A008E7F80936A0088BBFFCF209189
:1000B0006A0049E150E02E7F28BB80E197E2FA0117
:1000C0003197F1F70197D9F7216028BB80E197E2DA
:1000D000FA013197F1F70197D9F7EDCF80916A00D6
:1000E00029E130E04FEF5FE0807F88BB88E893E153
:1000F000F9013197F1F70197D9F748BB58BB88E868
:1001000093E1F9013197F1F70197D9F748BB8FEFE8
:10011000EBCF9FEF80B388BB98BBFCCF40916A00C8
:1001200020E030E080B38F3FE9F32115310519F469
:10013000842F806805C0F901E15AFF4F8081842B2C
:1001400088BBF901E05AFF4F40814095482348BBE6
:10015000C901019668E070E095D19C01E3CF0F934F
:100160001F93CF93DF9310916A0040E050E001E0CD
:10017000C9E1D0E080B38F3FD9F0802F809518235C
:1001800018BBCA01019668E070E07CD1AC01009711
:1001900011F400E005C0FC01E05AFF4F8081082BFC
:1001A00028E833E1FE013197F1F721503040D1F7D3
:1001B00041155105F9F6802F8095182318BB28E8C2
:1001C00033E1FE013197F1F721503040D1F7D2CF22
:1001D000CF93DF9320E030E0C9E1D0E080B390E03E
:1001E0008E3F910511F590916A002115310519F4A2
:1001F000892F806805C0F901E15AFF4F8081892B62
:1002000080936A0088BBF901E05AFF4F8081809596
:1002100090916A00892380936A0088BBC901019686
:1002200068E070E02FD19C0108C08F37910529F458
:100230008FEF90E029DF20E030E088E893E1FE01D5
:100240003197F1F70197D9F7C9CFCF93DF93809119
:100250006A008E7F80936A0088BB60E070E0BFEF29
:10026000C8EAD1E680B3873F09F44EC0883F48F41E
:100270008F3D09F49EC08F3E09F46FC08F3B91F70C
:10028000C4C08D3F71F08E3F19F08B3F59F711C0FC
:10029000683071051CF060E070E0E2C06F5F7F4F76
:1002A000DFC077FF03C067E070E0DAC061507040E4
:1002B000D7C0B8BB20E030E040E050E0AFEFF9013C
:1002C000E05AFF4F2F5F3F4F4115510561F4808188
:1002D0008095A823A8BB283031057CF020E030E0D1
:1002E00041E050E00AC08081A82BA8BB283031052E
:1002F00024F020E030E040E050E0CE010197F1F73B
:1003000080B38F3FE1F2ACC0B8BB27E030E040E003
:1003100050E0AFEFF901E05AFF4F21503040411556
:10032000510559F480818095A823A8BB37FF0EC0E2
:1003300027E030E041E050E009C08081A82BA8BB55
:1003400037FF04C027E030E040E050E0CE010197E5
:10035000F1F780B38F3FF1F283C0B8BB20E030E00B
:1003600040E050E0AFEFF901E05AFF4F4115510571
:1003700071F480818095A823A8BB2F5F3F4F283060
:10038000310584F027E030E041E050E00BC080818F
:10039000A82BA8BB2150304037FF04C020E030E03C
:1003A00040E050E0CE010197F1F780B38F3FD9F2E2
:1003B00057C0B8BB27E030E040E050E0AFEFF901B4
:1003C000E05AFF4F4115510569F480818095A823BB
:1003D000A8BB2150304037FF11C020E030E041E0A1
:1003E00050E00CC08081A82BA8BB2F5F3F4F283066
:1003F000310524F027E030E040E050E0CE010197E5
:10040000F1F780B38F3FD9F22BC0B8BB20E030E0CA
:1004100040E050E0F901E05AFF4F4115510571F4F9
:10042000B8BB8081809588BB2F5F3F4F2830310556
:100430008CF027E030E041E050E00CC0B8BB808198
:10044000809588BB2150304037FF04C020E030E069
:1004500040E050E0CE010197F1F780B38F3FD1F239
:10046000B8BBFB01E05AFF4F8081809588BBFACE74
:100470008FEF87BB11BA80936A0088BBE6DE80E00D
:1004800090E0089597FB092E07260AD077FD04D047
:100490000CD006D000201AF4709561957F4F089516
:1004A000F6F7909581959F4F0895AA1BBB1B51E1CC
:1004B00007C0AA1FBB1FA617B70710F0A61BB70BD4
:1004C000881F991F5A95A9F780959095BC01CD0179
:0604D0000895F894FFCF2F
:0A04D6000102040810204080FF001E
:00000001FF
