:1000000010C02AC029C028C0A9C026C025C024C04D
:1000100023C022C021C020C01FC01EC01DC01CC0E4
:100020001BC011241FBECFE5D2E0DEBFCDBF10E064
:10003000A0E6B0E0E4ECF5E002C005900D92AA362F
:10004000B107D9F710E0AAE6B0E001C01D92A737CA
:10005000B107E1F782D1B4C2D3CF80916A0085BBEA
:10006000089590916A008095892380936A00F5DF56
:10007000089590916A00982B90936A00EEDF08959E
:100080008FEFEFDF08958FEFF4DF08951092730084
:100090001092720010926D0010926C008FEF84BB72
:1000A0001ABA80E092E19BBD8ABD8EB588608EBD94
:1000B00089B7806489BF8EB582608EBD1092710051
:1000C0001092700010926E0080916E008093760006
:1000D0008091760080937500809175008093740004
:1000E0008091740080936F0080916F0080936B000B
:1000F00010926D0010926C00C6DF089581E090E0D0
:10010000909373008093720080916E008F5F809354
:100110006E0080916E002CE3622F46D290936E00A9
:1001200080916E008823C9F4809176008F5F809360
:1001300076008091760038D2909376008091760098
:10014000882359F4809175008F5F809375008091AA
:10015000750068E129D29093750008951F920F925F
:100160000FB60F9211242F933F934F935F936F938A
:100170007F938F939F93AF93BF93EF93FF93809160
:1001800070009091710001969093710080937000BF
:1001900080917000909171008436910529F410923D
:1001A000710010927000AADFFF91EF91BF91AF91A3
:1001B0009F918F917F916F915F914F913F912F917F
:1001C0000F900FBE0F901F90189580917200909124
:1001D0007300009771F0F89480916E008093740022
:1001E0008091760080936F008091750080936B0002
:1001F000789449DF80916C0090916D008230910578
:10020000D1F08330910530F4009771F08130910581
:10021000A9F40DC08430910551F08430910520F08F
:100220008530910559F407C08091740002C0809117
:100230006F0017DF089580916B0013DF08958091A0
:100240006C0090916D0084309105F1F0853091053E
:10025000B1F183309105F1F5809174008F5F809347
:100260007400809174002CE3622F9ED190937400EF
:1002700080917400882371F580916F008F5F809367
:100280006F0080916F0008C080916F008F5F809336
:100290006F0080916F006CE387D190936F00809125
:1002A0006F008823B9F480916B008F5F80936B009F
:1002B00080916B0068E178D190936B0008958091F4
:1002C0006B008F5F80936B0080916B0068E16CD155
:1002D00090936B00089580916C0090916D00843034
:1002E0009105C1F08530910551F183309105A1F55B
:1002F00080917400882341F48BE380937400909183
:100300006F00992361F015C0809174008150809333
:100310007400089580916F00882359F48BE38093D3
:100320006F0080916B00882371F080916B00815089
:100330000BC080916F00815080936F000895809171
:100340006B00882321F487E180936B0008958091EE
:100350006B00815080936B000895AF92BF92CF9253
:10036000DF92EF92FF920F931F93CF93DF938EDE76
:10037000789423E0C22ED12C91E0E92EF12C02E0FA
:1003800010E0C5E0D0E084E0A82EB12C29B32F3FC7
:1003900009F4FFC080916C0090916D00833091054D
:1003A00071F080916C0090916D008430910539F06E
:1003B00080916C0090916D008530910541F4273F4C
:1003C00011F489DFE6C02F3E11F439DFE2C02F3D82
:1003D00009F486C0203E38F42F3709F4BDC02F3B06
:1003E00009F0D7C09BC02D3F69F12E3F21F02B3F74
:1003F00009F0CFC04EC080916C0090916D008330A9
:10040000910571F080916C0090916D0084309105A0
:1004100039F080916C0090916D008530910569F400
:100420008091740080936E0080916F0080937600BD
:1004300080916B0080937500789410926D001092FB
:100440006C00A7C080916C0090916D008330910585
:1004500071F080916C0090916D008430910539F0BD
:1004600080916C0090916D008530910569F48091C8
:10047000740080936E0080916F008093760080916D
:100480006B00809375007894F0926D00E0926C00A0
:1004900080C080916C0090916D008330910571F067
:1004A00080916C0090916D008430910539F08091BD
:1004B0006C0090916D008530910569F48091740015
:1004C00080936E0080916F008093760080916B0026
:1004D00080937500789410936D0000936C0059C060
:1004E00080916C0090916D00009771F080916C008C
:1004F00090916D008130910539F080916C00909160
:100500006D008230910529F41092730010927200F0
:10051000F894D0926D00C0926C003BC080916C004A
:1005200090916D00009771F080916C0090916D003A
:100530008130910539F080916C0090916D0082308E
:10054000910529F41092730010927200F894B09201
:100550006D00A0926C001DC080916C0090916D00A8
:10056000009771F080916C0090916D008130910541
:1005700039F080916C0090916D008230910529F4E2
:100580001092730010927200F894D0936D00C09393
:100590006C001BDE8FE59AEEA0E081509040A040F9
:1005A000E1F700C00000F2CE991B79E004C0991F6A
:1005B000961708F0961B881F7A95C9F780950895BD
:0405C000F894FFCFDD
:0A05C4000102040810204080FF002F
:00000001FF
