:1000000010C02AC029C028C087C026C025C024C06F
:1000100023C022C021C020C01FC01EC01DC01CC0E4
:100020001BC011241FBECFE5D2E0DEBFCDBF10E064
:10003000A0E6B0E0EAE0F3E002C005900D92AA3637
:10004000B107D9F710E0AAE6B0E001C01D92A737CA
:10005000B107E1F75ED057C1D3CF80916A0085BB6D
:10006000089590916A008095982390936A008091FA
:100070006A0085BB089590916A00982B90936A005E
:1000800080916A0085BB089580916A0010926A0091
:1000900080916A0085BB089580916A008FEF8093FC
:1000A0006A0080916A0085BB0895109273001092D7
:1000B000720010926D0010926C008FEF84BB1ABA20
:1000C00081EE92E09BBD8ABD8EB588608EBD89B7FA
:1000D000806489BF109271001092700010926E00BF
:1000E00080916E00809376008091760080937500F9
:1000F00080917500809374008091740080936F00EC
:1001000080916F0080936B0010926D0010926C00D4
:100110000895CBDF7894FFCF1F920F920FB60F9206
:1001200011248F939F93809170009091710001969C
:100130009093710080937000809170009091710095
:100140008436910519F485B3809585BB9F918F9175
:100150000F900FBE0F901F90189581E090E0909344
:1001600073008093720080916E008F5F80936E00A9
:1001700080916E006CE3BBD090936E0080916E0016
:100180008823C9F4809176008F5F809376008091F8
:100190007600ADD09093760080917600882359F454
:1001A000809175008F5F809375008091750068E184
:1001B0009ED0909375000895809172009091730085
:1001C000892B61F080916E0080937400809176009D
:1001D00080936F008091750080936B0080916A001E
:1001E0008FEF80936A0080916A0085BB80916C00DC
:1001F00090916D008230910501F18330910528F4D2
:10020000009761F0019721F50CC08430910549F009
:100210008430910518F00597D9F40FC080917400CF
:1002200002C080916F0090916A008095892380932D
:100230006A0080916A0085BB089580916B0090915F
:100240006A008095892380936A0080916A0085BB4B
:100250000895809174008F5F809374008091740082
:100260006CE345D090937400809174008823C9F4A6
:1002700080916F008F5F80936F0080916F0037D007
:1002800090936F0080916F00882359F480916B00E8
:100290008F5F80936B0080916B0068E128D0909312
:1002A0006B000895809174008823D9F49BE39093A8
:1002B000740080916F00882371F490936F00809197
:1002C0006B00882311F487E103C080916B0081509B
:1002D00080936B00089580916F00815080936F0030
:1002E0000895809174008150809374000895991B43
:1002F00079E004C0991F961708F0961B881F7A951D
:0A030000C9F780950895F894FFCF27
:0A030A000102040810204080FF00EB
:00000001FF
